{
	"data": {
		"bytecode": {
			"linkReferences": {},
			"object": "608060405234801561001057600080fd5b50336000806101000a81548173ffffffffffffffffffffffffffffffffffffffff021916908373ffffffffffffffffffffffffffffffffffffffff16021790555030600160006101000a81548173ffffffffffffffffffffffffffffffffffffffff021916908373ffffffffffffffffffffffffffffffffffffffff1602179055506000600360006101000a81548160ff021916908360018111156100b8576100b76100c2565b5b02179055506100f1565b7f4e487b7100000000000000000000000000000000000000000000000000000000600052602160045260246000fd5b61112f806101006000396000f3fe6080604052600436106100705760003560e01c8063306a79bf1161004e578063306a79bf146100e557806342f6487a14610110578063944de2461461011a578063aaa484251461014557610070565b806319d9e015146100755780631ccf4e391461009e5780632e06cd0d146100c9575b600080fd5b34801561008157600080fd5b5061009c60048036038101906100979190610a47565b610170565b005b3480156100aa57600080fd5b506100b36102e4565b6040516100c09190610bfa565b60405180910390f35b6100e360048036038101906100de9190610ab6565b61030a565b005b3480156100f157600080fd5b506100fa610688565b6040516101079190610c4c565b60405180910390f35b61011861069b565b005b34801561012657600080fd5b5061012f6108d0565b60405161013c9190610cc7565b60405180910390f35b34801561015157600080fd5b5061015a6108e6565b6040516101679190610bfa565b60405180910390f35b3373ffffffffffffffffffffffffffffffffffffffff1660008054906101000a900473ffffffffffffffffffffffffffffffffffffffff1673ffffffffffffffffffffffffffffffffffffffff16146101fe576040517f08c379a00000000000000000000000000000000000000000000000000000000081526004016101f590610c87565b60405180910390fd5b600260405180606001604052808563ffffffff1681526020018460ff16815260200183815250908060018154018082558091505060019003906000526020600020906002020160009091909190915060008201518160000160006101000a81548163ffffffff021916908363ffffffff16021790555060208201518160000160046101000a81548160ff021916908360ff16021790555060408201518160010190805190602001906102b192919061090a565b5050506001600360006101000a81548160ff021916908360018111156102da576102d9610f0f565b5b0217905550505050565b600160009054906101000a900473ffffffffffffffffffffffffffffffffffffffff1681565b6000600160146101000a81548163ffffffff021916908363ffffffff16021790555060005b6002805490508160ff161015610407578463ffffffff1660028260ff168154811061035d5761035c610f6d565b5b906000526020600020906002020160000160009054906101000a900463ffffffff1663ffffffff1614156103f4578360028260ff16815481106103a3576103a2610f6d565b5b906000526020600020906002020160000160049054906101000a900460ff166103cc9190610d83565b60ff16600160146101000a81548163ffffffff021916908363ffffffff160217905550610407565b80806103ff90610eb6565b91505061032f565b60018081111561041a57610419610f0f565b5b600360009054906101000a900460ff16600181111561043c5761043b610f0f565b5b1461047c576040517f08c379a000000000000000000000000000000000000000000000000000000000815260040161047390610c67565b60405180910390fd5b6000600160149054906101000a900463ffffffff1663ffffffff16116104d7576040517f08c379a00000000000000000000000000000000000000000000000000000000081526004016104ce90610ca7565b60405180910390fd5b60046040518060e001604052808763ffffffff1681526020018660ff168152602001600160149054906101000a900463ffffffff1663ffffffff1681526020018581526020018481526020016000151581526020013373ffffffffffffffffffffffffffffffffffffffff16815250908060018154018082558091505060019003906000526020600020906004020160009091909190915060008201518160000160006101000a81548163ffffffff021916908363ffffffff16021790555060208201518160000160046101000a81548160ff021916908360ff16021790555060408201518160000160056101000a81548163ffffffff021916908363ffffffff16021790555060608201518160010190805190602001906105fa92919061090a565b50608082015181600201908051906020019061061792919061090a565b5060a08201518160030160006101000a81548160ff02191690831515021790555060c08201518160030160016101000a81548173ffffffffffffffffffffffffffffffffffffffff021916908373ffffffffffffffffffffffffffffffffffffffff16021790555050505050505050565b600360009054906101000a900460ff1681565b600080600160146101000a81548163ffffffff021916908363ffffffff160217905550600090505b6004805490508160ff16101561085e5760048160ff16815481106106ea576106e9610f6d565b5b906000526020600020906004020160030160019054906101000a900473ffffffffffffffffffffffffffffffffffffffff1673ffffffffffffffffffffffffffffffffffffffff163373ffffffffffffffffffffffffffffffffffffffff16141561084b576000151560048260ff168154811061076a57610769610f6d565b5b906000526020600020906004020160030160009054906101000a900460ff161515141561084a57600160048260ff16815481106107aa576107a9610f6d565b5b906000526020600020906004020160030160006101000a81548160ff02191690831515021790555060048160ff16815481106107e9576107e8610f6d565b5b906000526020600020906004020160000160059054906101000a900463ffffffff16600160148282829054906101000a900463ffffffff1661082b9190610d49565b92506101000a81548163ffffffff021916908363ffffffff1602179055505b5b808061085690610eb6565b9150506106c3565b7f570e6727d8aecbd70b2b62942bafdd52df16512778cd1454a51e2e164871938633600160009054906101000a900473ffffffffffffffffffffffffffffffffffffffff16600160149054906101000a900463ffffffff166040516108c593929190610c15565b60405180910390a150565b600160149054906101000a900463ffffffff1681565b60008054906101000a900473ffffffffffffffffffffffffffffffffffffffff1681565b82805461091690610e53565b90600052602060002090601f016020900481019282610938576000855561097f565b82601f1061095157805160ff191683800117855561097f565b8280016001018555821561097f579182015b8281111561097e578251825591602001919060010190610963565b5b50905061098c9190610990565b5090565b5b808211156109a9576000816000905550600101610991565b5090565b60006109c06109bb84610d07565b610ce2565b9050828152602081018484840111156109dc576109db610fd0565b5b6109e7848285610e44565b509392505050565b600082601f830112610a0457610a03610fcb565b5b8135610a148482602086016109ad565b91505092915050565b600081359050610a2c816110cb565b92915050565b600081359050610a41816110e2565b92915050565b600080600060608486031215610a6057610a5f610fda565b5b6000610a6e86828701610a1d565b9350506020610a7f86828701610a32565b925050604084013567ffffffffffffffff811115610aa057610a9f610fd5565b5b610aac868287016109ef565b9150509250925092565b60008060008060808587031215610ad057610acf610fda565b5b6000610ade87828801610a1d565b9450506020610aef87828801610a32565b935050604085013567ffffffffffffffff811115610b1057610b0f610fd5565b5b610b1c878288016109ef565b925050606085013567ffffffffffffffff811115610b3d57610b3c610fd5565b5b610b49878288016109ef565b91505092959194509250565b610b5e81610dbe565b82525050565b610b6d81610e20565b82525050565b6000610b80603883610d38565b9150610b8b82610ff0565b604082019050919050565b6000610ba3602183610d38565b9150610bae8261103f565b604082019050919050565b6000610bc6601e83610d38565b9150610bd18261108e565b602082019050919050565b610be581610e32565b82525050565b610bf481610e03565b82525050565b6000602082019050610c0f6000830184610b55565b92915050565b6000606082019050610c2a6000830186610b55565b610c376020830185610b55565b610c446040830184610bdc565b949350505050565b6000602082019050610c616000830184610b64565b92915050565b60006020820190508181036000830152610c8081610b73565b9050919050565b60006020820190508181036000830152610ca081610b96565b9050919050565b60006020820190508181036000830152610cc081610bb9565b9050919050565b6000602082019050610cdc6000830184610beb565b92915050565b6000610cec610cfd565b9050610cf88282610e85565b919050565b6000604051905090565b600067ffffffffffffffff821115610d2257610d21610f9c565b5b610d2b82610fdf565b9050602081019050919050565b600082825260208201905092915050565b6000610d5482610e03565b9150610d5f83610e03565b92508263ffffffff03821115610d7857610d77610ee0565b5b828201905092915050565b6000610d8e82610e13565b9150610d9983610e13565b92508160ff0483118215151615610db357610db2610ee0565b5b828202905092915050565b6000610dc982610de3565b9050919050565b6000819050610dde826110b7565b919050565b600073ffffffffffffffffffffffffffffffffffffffff82169050919050565b600063ffffffff82169050919050565b600060ff82169050919050565b6000610e2b82610dd0565b9050919050565b6000610e3d82610e03565b9050919050565b82818337600083830152505050565b60006002820490506001821680610e6b57607f821691505b60208210811415610e7f57610e7e610f3e565b5b50919050565b610e8e82610fdf565b810181811067ffffffffffffffff82111715610ead57610eac610f9c565b5b80604052505050565b6000610ec182610e13565b915060ff821415610ed557610ed4610ee0565b5b600182019050919050565b7f4e487b7100000000000000000000000000000000000000000000000000000000600052601160045260246000fd5b7f4e487b7100000000000000000000000000000000000000000000000000000000600052602160045260246000fd5b7f4e487b7100000000000000000000000000000000000000000000000000000000600052602260045260246000fd5b7f4e487b7100000000000000000000000000000000000000000000000000000000600052603260045260246000fd5b7f4e487b7100000000000000000000000000000000000000000000000000000000600052604160045260246000fd5b600080fd5b600080fd5b600080fd5b600080fd5b6000601f19601f8301169050919050565b7f596f752063616e206e6f74206f7264657220666f6f6420756e74696c2074686560008201527f20666f6f64206c69737420697320726567697374657265640000000000000000602082015250565b7f4f6e6c792074686520617070206f776e65722063616e206c6f6720696e2e2e2e60008201527f2e00000000000000000000000000000000000000000000000000000000000000602082015250565b7f546865206465736972656420666f6f6420776173206e6f7420666f756e640000600082015250565b600281106110c8576110c7610f0f565b5b50565b6110d481610e03565b81146110df57600080fd5b50565b6110eb81610e13565b81146110f657600080fd5b5056fea26469706673582212209787ddad891e2c07d9897a66b0bba8712682a221e17a8ab0831e48732c6b913464736f6c63430008070033",
			"opcodes": "PUSH1 0x80 PUSH1 0x40 MSTORE CALLVALUE DUP1 ISZERO PUSH2 0x10 JUMPI PUSH1 0x0 DUP1 REVERT JUMPDEST POP CALLER PUSH1 0x0 DUP1 PUSH2 0x100 EXP DUP2 SLOAD DUP2 PUSH20 0xFFFFFFFFFFFFFFFFFFFFFFFFFFFFFFFFFFFFFFFF MUL NOT AND SWAP1 DUP4 PUSH20 0xFFFFFFFFFFFFFFFFFFFFFFFFFFFFFFFFFFFFFFFF AND MUL OR SWAP1 SSTORE POP ADDRESS PUSH1 0x1 PUSH1 0x0 PUSH2 0x100 EXP DUP2 SLOAD DUP2 PUSH20 0xFFFFFFFFFFFFFFFFFFFFFFFFFFFFFFFFFFFFFFFF MUL NOT AND SWAP1 DUP4 PUSH20 0xFFFFFFFFFFFFFFFFFFFFFFFFFFFFFFFFFFFFFFFF AND MUL OR SWAP1 SSTORE POP PUSH1 0x0 PUSH1 0x3 PUSH1 0x0 PUSH2 0x100 EXP DUP2 SLOAD DUP2 PUSH1 0xFF MUL NOT AND SWAP1 DUP4 PUSH1 0x1 DUP2 GT ISZERO PUSH2 0xB8 JUMPI PUSH2 0xB7 PUSH2 0xC2 JUMP JUMPDEST JUMPDEST MUL OR SWAP1 SSTORE POP PUSH2 0xF1 JUMP JUMPDEST PUSH32 0x4E487B7100000000000000000000000000000000000000000000000000000000 PUSH1 0x0 MSTORE PUSH1 0x21 PUSH1 0x4 MSTORE PUSH1 0x24 PUSH1 0x0 REVERT JUMPDEST PUSH2 0x112F DUP1 PUSH2 0x100 PUSH1 0x0 CODECOPY PUSH1 0x0 RETURN INVALID PUSH1 0x80 PUSH1 0x40 MSTORE PUSH1 0x4 CALLDATASIZE LT PUSH2 0x70 JUMPI PUSH1 0x0 CALLDATALOAD PUSH1 0xE0 SHR DUP1 PUSH4 0x306A79BF GT PUSH2 0x4E JUMPI DUP1 PUSH4 0x306A79BF EQ PUSH2 0xE5 JUMPI DUP1 PUSH4 0x42F6487A EQ PUSH2 0x110 JUMPI DUP1 PUSH4 0x944DE246 EQ PUSH2 0x11A JUMPI DUP1 PUSH4 0xAAA48425 EQ PUSH2 0x145 JUMPI PUSH2 0x70 JUMP JUMPDEST DUP1 PUSH4 0x19D9E015 EQ PUSH2 0x75 JUMPI DUP1 PUSH4 0x1CCF4E39 EQ PUSH2 0x9E JUMPI DUP1 PUSH4 0x2E06CD0D EQ PUSH2 0xC9 JUMPI JUMPDEST PUSH1 0x0 DUP1 REVERT JUMPDEST CALLVALUE DUP1 ISZERO PUSH2 0x81 JUMPI PUSH1 0x0 DUP1 REVERT JUMPDEST POP PUSH2 0x9C PUSH1 0x4 DUP1 CALLDATASIZE SUB DUP2 ADD SWAP1 PUSH2 0x97 SWAP2 SWAP1 PUSH2 0xA47 JUMP JUMPDEST PUSH2 0x170 JUMP JUMPDEST STOP JUMPDEST CALLVALUE DUP1 ISZERO PUSH2 0xAA JUMPI PUSH1 0x0 DUP1 REVERT JUMPDEST POP PUSH2 0xB3 PUSH2 0x2E4 JUMP JUMPDEST PUSH1 0x40 MLOAD PUSH2 0xC0 SWAP2 SWAP1 PUSH2 0xBFA JUMP JUMPDEST PUSH1 0x40 MLOAD DUP1 SWAP2 SUB SWAP1 RETURN JUMPDEST PUSH2 0xE3 PUSH1 0x4 DUP1 CALLDATASIZE SUB DUP2 ADD SWAP1 PUSH2 0xDE SWAP2 SWAP1 PUSH2 0xAB6 JUMP JUMPDEST PUSH2 0x30A JUMP JUMPDEST STOP JUMPDEST CALLVALUE DUP1 ISZERO PUSH2 0xF1 JUMPI PUSH1 0x0 DUP1 REVERT JUMPDEST POP PUSH2 0xFA PUSH2 0x688 JUMP JUMPDEST PUSH1 0x40 MLOAD PUSH2 0x107 SWAP2 SWAP1 PUSH2 0xC4C JUMP JUMPDEST PUSH1 0x40 MLOAD DUP1 SWAP2 SUB SWAP1 RETURN JUMPDEST PUSH2 0x118 PUSH2 0x69B JUMP JUMPDEST STOP JUMPDEST CALLVALUE DUP1 ISZERO PUSH2 0x126 JUMPI PUSH1 0x0 DUP1 REVERT JUMPDEST POP PUSH2 0x12F PUSH2 0x8D0 JUMP JUMPDEST PUSH1 0x40 MLOAD PUSH2 0x13C SWAP2 SWAP1 PUSH2 0xCC7 JUMP JUMPDEST PUSH1 0x40 MLOAD DUP1 SWAP2 SUB SWAP1 RETURN JUMPDEST CALLVALUE DUP1 ISZERO PUSH2 0x151 JUMPI PUSH1 0x0 DUP1 REVERT JUMPDEST POP PUSH2 0x15A PUSH2 0x8E6 JUMP JUMPDEST PUSH1 0x40 MLOAD PUSH2 0x167 SWAP2 SWAP1 PUSH2 0xBFA JUMP JUMPDEST PUSH1 0x40 MLOAD DUP1 SWAP2 SUB SWAP1 RETURN JUMPDEST CALLER PUSH20 0xFFFFFFFFFFFFFFFFFFFFFFFFFFFFFFFFFFFFFFFF AND PUSH1 0x0 DUP1 SLOAD SWAP1 PUSH2 0x100 EXP SWAP1 DIV PUSH20 0xFFFFFFFFFFFFFFFFFFFFFFFFFFFFFFFFFFFFFFFF AND PUSH20 0xFFFFFFFFFFFFFFFFFFFFFFFFFFFFFFFFFFFFFFFF AND EQ PUSH2 0x1FE JUMPI PUSH1 0x40 MLOAD PUSH32 0x8C379A000000000000000000000000000000000000000000000000000000000 DUP2 MSTORE PUSH1 0x4 ADD PUSH2 0x1F5 SWAP1 PUSH2 0xC87 JUMP JUMPDEST PUSH1 0x40 MLOAD DUP1 SWAP2 SUB SWAP1 REVERT JUMPDEST PUSH1 0x2 PUSH1 0x40 MLOAD DUP1 PUSH1 0x60 ADD PUSH1 0x40 MSTORE DUP1 DUP6 PUSH4 0xFFFFFFFF AND DUP2 MSTORE PUSH1 0x20 ADD DUP5 PUSH1 0xFF AND DUP2 MSTORE PUSH1 0x20 ADD DUP4 DUP2 MSTORE POP SWAP1 DUP1 PUSH1 0x1 DUP2 SLOAD ADD DUP1 DUP3 SSTORE DUP1 SWAP2 POP POP PUSH1 0x1 SWAP1 SUB SWAP1 PUSH1 0x0 MSTORE PUSH1 0x20 PUSH1 0x0 KECCAK256 SWAP1 PUSH1 0x2 MUL ADD PUSH1 0x0 SWAP1 SWAP2 SWAP1 SWAP2 SWAP1 SWAP2 POP PUSH1 0x0 DUP3 ADD MLOAD DUP2 PUSH1 0x0 ADD PUSH1 0x0 PUSH2 0x100 EXP DUP2 SLOAD DUP2 PUSH4 0xFFFFFFFF MUL NOT AND SWAP1 DUP4 PUSH4 0xFFFFFFFF AND MUL OR SWAP1 SSTORE POP PUSH1 0x20 DUP3 ADD MLOAD DUP2 PUSH1 0x0 ADD PUSH1 0x4 PUSH2 0x100 EXP DUP2 SLOAD DUP2 PUSH1 0xFF MUL NOT AND SWAP1 DUP4 PUSH1 0xFF AND MUL OR SWAP1 SSTORE POP PUSH1 0x40 DUP3 ADD MLOAD DUP2 PUSH1 0x1 ADD SWAP1 DUP1 MLOAD SWAP1 PUSH1 0x20 ADD SWAP1 PUSH2 0x2B1 SWAP3 SWAP2 SWAP1 PUSH2 0x90A JUMP JUMPDEST POP POP POP PUSH1 0x1 PUSH1 0x3 PUSH1 0x0 PUSH2 0x100 EXP DUP2 SLOAD DUP2 PUSH1 0xFF MUL NOT AND SWAP1 DUP4 PUSH1 0x1 DUP2 GT ISZERO PUSH2 0x2DA JUMPI PUSH2 0x2D9 PUSH2 0xF0F JUMP JUMPDEST JUMPDEST MUL OR SWAP1 SSTORE POP POP POP POP JUMP JUMPDEST PUSH1 0x1 PUSH1 0x0 SWAP1 SLOAD SWAP1 PUSH2 0x100 EXP SWAP1 DIV PUSH20 0xFFFFFFFFFFFFFFFFFFFFFFFFFFFFFFFFFFFFFFFF AND DUP2 JUMP JUMPDEST PUSH1 0x0 PUSH1 0x1 PUSH1 0x14 PUSH2 0x100 EXP DUP2 SLOAD DUP2 PUSH4 0xFFFFFFFF MUL NOT AND SWAP1 DUP4 PUSH4 0xFFFFFFFF AND MUL OR SWAP1 SSTORE POP PUSH1 0x0 JUMPDEST PUSH1 0x2 DUP1 SLOAD SWAP1 POP DUP2 PUSH1 0xFF AND LT ISZERO PUSH2 0x407 JUMPI DUP5 PUSH4 0xFFFFFFFF AND PUSH1 0x2 DUP3 PUSH1 0xFF AND DUP2 SLOAD DUP2 LT PUSH2 0x35D JUMPI PUSH2 0x35C PUSH2 0xF6D JUMP JUMPDEST JUMPDEST SWAP1 PUSH1 0x0 MSTORE PUSH1 0x20 PUSH1 0x0 KECCAK256 SWAP1 PUSH1 0x2 MUL ADD PUSH1 0x0 ADD PUSH1 0x0 SWAP1 SLOAD SWAP1 PUSH2 0x100 EXP SWAP1 DIV PUSH4 0xFFFFFFFF AND PUSH4 0xFFFFFFFF AND EQ ISZERO PUSH2 0x3F4 JUMPI DUP4 PUSH1 0x2 DUP3 PUSH1 0xFF AND DUP2 SLOAD DUP2 LT PUSH2 0x3A3 JUMPI PUSH2 0x3A2 PUSH2 0xF6D JUMP JUMPDEST JUMPDEST SWAP1 PUSH1 0x0 MSTORE PUSH1 0x20 PUSH1 0x0 KECCAK256 SWAP1 PUSH1 0x2 MUL ADD PUSH1 0x0 ADD PUSH1 0x4 SWAP1 SLOAD SWAP1 PUSH2 0x100 EXP SWAP1 DIV PUSH1 0xFF AND PUSH2 0x3CC SWAP2 SWAP1 PUSH2 0xD83 JUMP JUMPDEST PUSH1 0xFF AND PUSH1 0x1 PUSH1 0x14 PUSH2 0x100 EXP DUP2 SLOAD DUP2 PUSH4 0xFFFFFFFF MUL NOT AND SWAP1 DUP4 PUSH4 0xFFFFFFFF AND MUL OR SWAP1 SSTORE POP PUSH2 0x407 JUMP JUMPDEST DUP1 DUP1 PUSH2 0x3FF SWAP1 PUSH2 0xEB6 JUMP JUMPDEST SWAP2 POP POP PUSH2 0x32F JUMP JUMPDEST PUSH1 0x1 DUP1 DUP2 GT ISZERO PUSH2 0x41A JUMPI PUSH2 0x419 PUSH2 0xF0F JUMP JUMPDEST JUMPDEST PUSH1 0x3 PUSH1 0x0 SWAP1 SLOAD SWAP1 PUSH2 0x100 EXP SWAP1 DIV PUSH1 0xFF AND PUSH1 0x1 DUP2 GT ISZERO PUSH2 0x43C JUMPI PUSH2 0x43B PUSH2 0xF0F JUMP JUMPDEST JUMPDEST EQ PUSH2 0x47C JUMPI PUSH1 0x40 MLOAD PUSH32 0x8C379A000000000000000000000000000000000000000000000000000000000 DUP2 MSTORE PUSH1 0x4 ADD PUSH2 0x473 SWAP1 PUSH2 0xC67 JUMP JUMPDEST PUSH1 0x40 MLOAD DUP1 SWAP2 SUB SWAP1 REVERT JUMPDEST PUSH1 0x0 PUSH1 0x1 PUSH1 0x14 SWAP1 SLOAD SWAP1 PUSH2 0x100 EXP SWAP1 DIV PUSH4 0xFFFFFFFF AND PUSH4 0xFFFFFFFF AND GT PUSH2 0x4D7 JUMPI PUSH1 0x40 MLOAD PUSH32 0x8C379A000000000000000000000000000000000000000000000000000000000 DUP2 MSTORE PUSH1 0x4 ADD PUSH2 0x4CE SWAP1 PUSH2 0xCA7 JUMP JUMPDEST PUSH1 0x40 MLOAD DUP1 SWAP2 SUB SWAP1 REVERT JUMPDEST PUSH1 0x4 PUSH1 0x40 MLOAD DUP1 PUSH1 0xE0 ADD PUSH1 0x40 MSTORE DUP1 DUP8 PUSH4 0xFFFFFFFF AND DUP2 MSTORE PUSH1 0x20 ADD DUP7 PUSH1 0xFF AND DUP2 MSTORE PUSH1 0x20 ADD PUSH1 0x1 PUSH1 0x14 SWAP1 SLOAD SWAP1 PUSH2 0x100 EXP SWAP1 DIV PUSH4 0xFFFFFFFF AND PUSH4 0xFFFFFFFF AND DUP2 MSTORE PUSH1 0x20 ADD DUP6 DUP2 MSTORE PUSH1 0x20 ADD DUP5 DUP2 MSTORE PUSH1 0x20 ADD PUSH1 0x0 ISZERO ISZERO DUP2 MSTORE PUSH1 0x20 ADD CALLER PUSH20 0xFFFFFFFFFFFFFFFFFFFFFFFFFFFFFFFFFFFFFFFF AND DUP2 MSTORE POP SWAP1 DUP1 PUSH1 0x1 DUP2 SLOAD ADD DUP1 DUP3 SSTORE DUP1 SWAP2 POP POP PUSH1 0x1 SWAP1 SUB SWAP1 PUSH1 0x0 MSTORE PUSH1 0x20 PUSH1 0x0 KECCAK256 SWAP1 PUSH1 0x4 MUL ADD PUSH1 0x0 SWAP1 SWAP2 SWAP1 SWAP2 SWAP1 SWAP2 POP PUSH1 0x0 DUP3 ADD MLOAD DUP2 PUSH1 0x0 ADD PUSH1 0x0 PUSH2 0x100 EXP DUP2 SLOAD DUP2 PUSH4 0xFFFFFFFF MUL NOT AND SWAP1 DUP4 PUSH4 0xFFFFFFFF AND MUL OR SWAP1 SSTORE POP PUSH1 0x20 DUP3 ADD MLOAD DUP2 PUSH1 0x0 ADD PUSH1 0x4 PUSH2 0x100 EXP DUP2 SLOAD DUP2 PUSH1 0xFF MUL NOT AND SWAP1 DUP4 PUSH1 0xFF AND MUL OR SWAP1 SSTORE POP PUSH1 0x40 DUP3 ADD MLOAD DUP2 PUSH1 0x0 ADD PUSH1 0x5 PUSH2 0x100 EXP DUP2 SLOAD DUP2 PUSH4 0xFFFFFFFF MUL NOT AND SWAP1 DUP4 PUSH4 0xFFFFFFFF AND MUL OR SWAP1 SSTORE POP PUSH1 0x60 DUP3 ADD MLOAD DUP2 PUSH1 0x1 ADD SWAP1 DUP1 MLOAD SWAP1 PUSH1 0x20 ADD SWAP1 PUSH2 0x5FA SWAP3 SWAP2 SWAP1 PUSH2 0x90A JUMP JUMPDEST POP PUSH1 0x80 DUP3 ADD MLOAD DUP2 PUSH1 0x2 ADD SWAP1 DUP1 MLOAD SWAP1 PUSH1 0x20 ADD SWAP1 PUSH2 0x617 SWAP3 SWAP2 SWAP1 PUSH2 0x90A JUMP JUMPDEST POP PUSH1 0xA0 DUP3 ADD MLOAD DUP2 PUSH1 0x3 ADD PUSH1 0x0 PUSH2 0x100 EXP DUP2 SLOAD DUP2 PUSH1 0xFF MUL NOT AND SWAP1 DUP4 ISZERO ISZERO MUL OR SWAP1 SSTORE POP PUSH1 0xC0 DUP3 ADD MLOAD DUP2 PUSH1 0x3 ADD PUSH1 0x1 PUSH2 0x100 EXP DUP2 SLOAD DUP2 PUSH20 0xFFFFFFFFFFFFFFFFFFFFFFFFFFFFFFFFFFFFFFFF MUL NOT AND SWAP1 DUP4 PUSH20 0xFFFFFFFFFFFFFFFFFFFFFFFFFFFFFFFFFFFFFFFF AND MUL OR SWAP1 SSTORE POP POP POP POP POP POP POP POP JUMP JUMPDEST PUSH1 0x3 PUSH1 0x0 SWAP1 SLOAD SWAP1 PUSH2 0x100 EXP SWAP1 DIV PUSH1 0xFF AND DUP2 JUMP JUMPDEST PUSH1 0x0 DUP1 PUSH1 0x1 PUSH1 0x14 PUSH2 0x100 EXP DUP2 SLOAD DUP2 PUSH4 0xFFFFFFFF MUL NOT AND SWAP1 DUP4 PUSH4 0xFFFFFFFF AND MUL OR SWAP1 SSTORE POP PUSH1 0x0 SWAP1 POP JUMPDEST PUSH1 0x4 DUP1 SLOAD SWAP1 POP DUP2 PUSH1 0xFF AND LT ISZERO PUSH2 0x85E JUMPI PUSH1 0x4 DUP2 PUSH1 0xFF AND DUP2 SLOAD DUP2 LT PUSH2 0x6EA JUMPI PUSH2 0x6E9 PUSH2 0xF6D JUMP JUMPDEST JUMPDEST SWAP1 PUSH1 0x0 MSTORE PUSH1 0x20 PUSH1 0x0 KECCAK256 SWAP1 PUSH1 0x4 MUL ADD PUSH1 0x3 ADD PUSH1 0x1 SWAP1 SLOAD SWAP1 PUSH2 0x100 EXP SWAP1 DIV PUSH20 0xFFFFFFFFFFFFFFFFFFFFFFFFFFFFFFFFFFFFFFFF AND PUSH20 0xFFFFFFFFFFFFFFFFFFFFFFFFFFFFFFFFFFFFFFFF AND CALLER PUSH20 0xFFFFFFFFFFFFFFFFFFFFFFFFFFFFFFFFFFFFFFFF AND EQ ISZERO PUSH2 0x84B JUMPI PUSH1 0x0 ISZERO ISZERO PUSH1 0x4 DUP3 PUSH1 0xFF AND DUP2 SLOAD DUP2 LT PUSH2 0x76A JUMPI PUSH2 0x769 PUSH2 0xF6D JUMP JUMPDEST JUMPDEST SWAP1 PUSH1 0x0 MSTORE PUSH1 0x20 PUSH1 0x0 KECCAK256 SWAP1 PUSH1 0x4 MUL ADD PUSH1 0x3 ADD PUSH1 0x0 SWAP1 SLOAD SWAP1 PUSH2 0x100 EXP SWAP1 DIV PUSH1 0xFF AND ISZERO ISZERO EQ ISZERO PUSH2 0x84A JUMPI PUSH1 0x1 PUSH1 0x4 DUP3 PUSH1 0xFF AND DUP2 SLOAD DUP2 LT PUSH2 0x7AA JUMPI PUSH2 0x7A9 PUSH2 0xF6D JUMP JUMPDEST JUMPDEST SWAP1 PUSH1 0x0 MSTORE PUSH1 0x20 PUSH1 0x0 KECCAK256 SWAP1 PUSH1 0x4 MUL ADD PUSH1 0x3 ADD PUSH1 0x0 PUSH2 0x100 EXP DUP2 SLOAD DUP2 PUSH1 0xFF MUL NOT AND SWAP1 DUP4 ISZERO ISZERO MUL OR SWAP1 SSTORE POP PUSH1 0x4 DUP2 PUSH1 0xFF AND DUP2 SLOAD DUP2 LT PUSH2 0x7E9 JUMPI PUSH2 0x7E8 PUSH2 0xF6D JUMP JUMPDEST JUMPDEST SWAP1 PUSH1 0x0 MSTORE PUSH1 0x20 PUSH1 0x0 KECCAK256 SWAP1 PUSH1 0x4 MUL ADD PUSH1 0x0 ADD PUSH1 0x5 SWAP1 SLOAD SWAP1 PUSH2 0x100 EXP SWAP1 DIV PUSH4 0xFFFFFFFF AND PUSH1 0x1 PUSH1 0x14 DUP3 DUP3 DUP3 SWAP1 SLOAD SWAP1 PUSH2 0x100 EXP SWAP1 DIV PUSH4 0xFFFFFFFF AND PUSH2 0x82B SWAP2 SWAP1 PUSH2 0xD49 JUMP JUMPDEST SWAP3 POP PUSH2 0x100 EXP DUP2 SLOAD DUP2 PUSH4 0xFFFFFFFF MUL NOT AND SWAP1 DUP4 PUSH4 0xFFFFFFFF AND MUL OR SWAP1 SSTORE POP JUMPDEST JUMPDEST DUP1 DUP1 PUSH2 0x856 SWAP1 PUSH2 0xEB6 JUMP JUMPDEST SWAP2 POP POP PUSH2 0x6C3 JUMP JUMPDEST PUSH32 0x570E6727D8AECBD70B2B62942BAFDD52DF16512778CD1454A51E2E1648719386 CALLER PUSH1 0x1 PUSH1 0x0 SWAP1 SLOAD SWAP1 PUSH2 0x100 EXP SWAP1 DIV PUSH20 0xFFFFFFFFFFFFFFFFFFFFFFFFFFFFFFFFFFFFFFFF AND PUSH1 0x1 PUSH1 0x14 SWAP1 SLOAD SWAP1 PUSH2 0x100 EXP SWAP1 DIV PUSH4 0xFFFFFFFF AND PUSH1 0x40 MLOAD PUSH2 0x8C5 SWAP4 SWAP3 SWAP2 SWAP1 PUSH2 0xC15 JUMP JUMPDEST PUSH1 0x40 MLOAD DUP1 SWAP2 SUB SWAP1 LOG1 POP JUMP JUMPDEST PUSH1 0x1 PUSH1 0x14 SWAP1 SLOAD SWAP1 PUSH2 0x100 EXP SWAP1 DIV PUSH4 0xFFFFFFFF AND DUP2 JUMP JUMPDEST PUSH1 0x0 DUP1 SLOAD SWAP1 PUSH2 0x100 EXP SWAP1 DIV PUSH20 0xFFFFFFFFFFFFFFFFFFFFFFFFFFFFFFFFFFFFFFFF AND DUP2 JUMP JUMPDEST DUP3 DUP1 SLOAD PUSH2 0x916 SWAP1 PUSH2 0xE53 JUMP JUMPDEST SWAP1 PUSH1 0x0 MSTORE PUSH1 0x20 PUSH1 0x0 KECCAK256 SWAP1 PUSH1 0x1F ADD PUSH1 0x20 SWAP1 DIV DUP2 ADD SWAP3 DUP3 PUSH2 0x938 JUMPI PUSH1 0x0 DUP6 SSTORE PUSH2 0x97F JUMP JUMPDEST DUP3 PUSH1 0x1F LT PUSH2 0x951 JUMPI DUP1 MLOAD PUSH1 0xFF NOT AND DUP4 DUP1 ADD OR DUP6 SSTORE PUSH2 0x97F JUMP JUMPDEST DUP3 DUP1 ADD PUSH1 0x1 ADD DUP6 SSTORE DUP3 ISZERO PUSH2 0x97F JUMPI SWAP2 DUP3 ADD JUMPDEST DUP3 DUP2 GT ISZERO PUSH2 0x97E JUMPI DUP3 MLOAD DUP3 SSTORE SWAP2 PUSH1 0x20 ADD SWAP2 SWAP1 PUSH1 0x1 ADD SWAP1 PUSH2 0x963 JUMP JUMPDEST JUMPDEST POP SWAP1 POP PUSH2 0x98C SWAP2 SWAP1 PUSH2 0x990 JUMP JUMPDEST POP SWAP1 JUMP JUMPDEST JUMPDEST DUP1 DUP3 GT ISZERO PUSH2 0x9A9 JUMPI PUSH1 0x0 DUP2 PUSH1 0x0 SWAP1 SSTORE POP PUSH1 0x1 ADD PUSH2 0x991 JUMP JUMPDEST POP SWAP1 JUMP JUMPDEST PUSH1 0x0 PUSH2 0x9C0 PUSH2 0x9BB DUP5 PUSH2 0xD07 JUMP JUMPDEST PUSH2 0xCE2 JUMP JUMPDEST SWAP1 POP DUP3 DUP2 MSTORE PUSH1 0x20 DUP2 ADD DUP5 DUP5 DUP5 ADD GT ISZERO PUSH2 0x9DC JUMPI PUSH2 0x9DB PUSH2 0xFD0 JUMP JUMPDEST JUMPDEST PUSH2 0x9E7 DUP5 DUP3 DUP6 PUSH2 0xE44 JUMP JUMPDEST POP SWAP4 SWAP3 POP POP POP JUMP JUMPDEST PUSH1 0x0 DUP3 PUSH1 0x1F DUP4 ADD SLT PUSH2 0xA04 JUMPI PUSH2 0xA03 PUSH2 0xFCB JUMP JUMPDEST JUMPDEST DUP2 CALLDATALOAD PUSH2 0xA14 DUP5 DUP3 PUSH1 0x20 DUP7 ADD PUSH2 0x9AD JUMP JUMPDEST SWAP2 POP POP SWAP3 SWAP2 POP POP JUMP JUMPDEST PUSH1 0x0 DUP2 CALLDATALOAD SWAP1 POP PUSH2 0xA2C DUP2 PUSH2 0x10CB JUMP JUMPDEST SWAP3 SWAP2 POP POP JUMP JUMPDEST PUSH1 0x0 DUP2 CALLDATALOAD SWAP1 POP PUSH2 0xA41 DUP2 PUSH2 0x10E2 JUMP JUMPDEST SWAP3 SWAP2 POP POP JUMP JUMPDEST PUSH1 0x0 DUP1 PUSH1 0x0 PUSH1 0x60 DUP5 DUP7 SUB SLT ISZERO PUSH2 0xA60 JUMPI PUSH2 0xA5F PUSH2 0xFDA JUMP JUMPDEST JUMPDEST PUSH1 0x0 PUSH2 0xA6E DUP7 DUP3 DUP8 ADD PUSH2 0xA1D JUMP JUMPDEST SWAP4 POP POP PUSH1 0x20 PUSH2 0xA7F DUP7 DUP3 DUP8 ADD PUSH2 0xA32 JUMP JUMPDEST SWAP3 POP POP PUSH1 0x40 DUP5 ADD CALLDATALOAD PUSH8 0xFFFFFFFFFFFFFFFF DUP2 GT ISZERO PUSH2 0xAA0 JUMPI PUSH2 0xA9F PUSH2 0xFD5 JUMP JUMPDEST JUMPDEST PUSH2 0xAAC DUP7 DUP3 DUP8 ADD PUSH2 0x9EF JUMP JUMPDEST SWAP2 POP POP SWAP3 POP SWAP3 POP SWAP3 JUMP JUMPDEST PUSH1 0x0 DUP1 PUSH1 0x0 DUP1 PUSH1 0x80 DUP6 DUP8 SUB SLT ISZERO PUSH2 0xAD0 JUMPI PUSH2 0xACF PUSH2 0xFDA JUMP JUMPDEST JUMPDEST PUSH1 0x0 PUSH2 0xADE DUP8 DUP3 DUP9 ADD PUSH2 0xA1D JUMP JUMPDEST SWAP5 POP POP PUSH1 0x20 PUSH2 0xAEF DUP8 DUP3 DUP9 ADD PUSH2 0xA32 JUMP JUMPDEST SWAP4 POP POP PUSH1 0x40 DUP6 ADD CALLDATALOAD PUSH8 0xFFFFFFFFFFFFFFFF DUP2 GT ISZERO PUSH2 0xB10 JUMPI PUSH2 0xB0F PUSH2 0xFD5 JUMP JUMPDEST JUMPDEST PUSH2 0xB1C DUP8 DUP3 DUP9 ADD PUSH2 0x9EF JUMP JUMPDEST SWAP3 POP POP PUSH1 0x60 DUP6 ADD CALLDATALOAD PUSH8 0xFFFFFFFFFFFFFFFF DUP2 GT ISZERO PUSH2 0xB3D JUMPI PUSH2 0xB3C PUSH2 0xFD5 JUMP JUMPDEST JUMPDEST PUSH2 0xB49 DUP8 DUP3 DUP9 ADD PUSH2 0x9EF JUMP JUMPDEST SWAP2 POP POP SWAP3 SWAP6 SWAP2 SWAP5 POP SWAP3 POP JUMP JUMPDEST PUSH2 0xB5E DUP2 PUSH2 0xDBE JUMP JUMPDEST DUP3 MSTORE POP POP JUMP JUMPDEST PUSH2 0xB6D DUP2 PUSH2 0xE20 JUMP JUMPDEST DUP3 MSTORE POP POP JUMP JUMPDEST PUSH1 0x0 PUSH2 0xB80 PUSH1 0x38 DUP4 PUSH2 0xD38 JUMP JUMPDEST SWAP2 POP PUSH2 0xB8B DUP3 PUSH2 0xFF0 JUMP JUMPDEST PUSH1 0x40 DUP3 ADD SWAP1 POP SWAP2 SWAP1 POP JUMP JUMPDEST PUSH1 0x0 PUSH2 0xBA3 PUSH1 0x21 DUP4 PUSH2 0xD38 JUMP JUMPDEST SWAP2 POP PUSH2 0xBAE DUP3 PUSH2 0x103F JUMP JUMPDEST PUSH1 0x40 DUP3 ADD SWAP1 POP SWAP2 SWAP1 POP JUMP JUMPDEST PUSH1 0x0 PUSH2 0xBC6 PUSH1 0x1E DUP4 PUSH2 0xD38 JUMP JUMPDEST SWAP2 POP PUSH2 0xBD1 DUP3 PUSH2 0x108E JUMP JUMPDEST PUSH1 0x20 DUP3 ADD SWAP1 POP SWAP2 SWAP1 POP JUMP JUMPDEST PUSH2 0xBE5 DUP2 PUSH2 0xE32 JUMP JUMPDEST DUP3 MSTORE POP POP JUMP JUMPDEST PUSH2 0xBF4 DUP2 PUSH2 0xE03 JUMP JUMPDEST DUP3 MSTORE POP POP JUMP JUMPDEST PUSH1 0x0 PUSH1 0x20 DUP3 ADD SWAP1 POP PUSH2 0xC0F PUSH1 0x0 DUP4 ADD DUP5 PUSH2 0xB55 JUMP JUMPDEST SWAP3 SWAP2 POP POP JUMP JUMPDEST PUSH1 0x0 PUSH1 0x60 DUP3 ADD SWAP1 POP PUSH2 0xC2A PUSH1 0x0 DUP4 ADD DUP7 PUSH2 0xB55 JUMP JUMPDEST PUSH2 0xC37 PUSH1 0x20 DUP4 ADD DUP6 PUSH2 0xB55 JUMP JUMPDEST PUSH2 0xC44 PUSH1 0x40 DUP4 ADD DUP5 PUSH2 0xBDC JUMP JUMPDEST SWAP5 SWAP4 POP POP POP POP JUMP JUMPDEST PUSH1 0x0 PUSH1 0x20 DUP3 ADD SWAP1 POP PUSH2 0xC61 PUSH1 0x0 DUP4 ADD DUP5 PUSH2 0xB64 JUMP JUMPDEST SWAP3 SWAP2 POP POP JUMP JUMPDEST PUSH1 0x0 PUSH1 0x20 DUP3 ADD SWAP1 POP DUP2 DUP2 SUB PUSH1 0x0 DUP4 ADD MSTORE PUSH2 0xC80 DUP2 PUSH2 0xB73 JUMP JUMPDEST SWAP1 POP SWAP2 SWAP1 POP JUMP JUMPDEST PUSH1 0x0 PUSH1 0x20 DUP3 ADD SWAP1 POP DUP2 DUP2 SUB PUSH1 0x0 DUP4 ADD MSTORE PUSH2 0xCA0 DUP2 PUSH2 0xB96 JUMP JUMPDEST SWAP1 POP SWAP2 SWAP1 POP JUMP JUMPDEST PUSH1 0x0 PUSH1 0x20 DUP3 ADD SWAP1 POP DUP2 DUP2 SUB PUSH1 0x0 DUP4 ADD MSTORE PUSH2 0xCC0 DUP2 PUSH2 0xBB9 JUMP JUMPDEST SWAP1 POP SWAP2 SWAP1 POP JUMP JUMPDEST PUSH1 0x0 PUSH1 0x20 DUP3 ADD SWAP1 POP PUSH2 0xCDC PUSH1 0x0 DUP4 ADD DUP5 PUSH2 0xBEB JUMP JUMPDEST SWAP3 SWAP2 POP POP JUMP JUMPDEST PUSH1 0x0 PUSH2 0xCEC PUSH2 0xCFD JUMP JUMPDEST SWAP1 POP PUSH2 0xCF8 DUP3 DUP3 PUSH2 0xE85 JUMP JUMPDEST SWAP2 SWAP1 POP JUMP JUMPDEST PUSH1 0x0 PUSH1 0x40 MLOAD SWAP1 POP SWAP1 JUMP JUMPDEST PUSH1 0x0 PUSH8 0xFFFFFFFFFFFFFFFF DUP3 GT ISZERO PUSH2 0xD22 JUMPI PUSH2 0xD21 PUSH2 0xF9C JUMP JUMPDEST JUMPDEST PUSH2 0xD2B DUP3 PUSH2 0xFDF JUMP JUMPDEST SWAP1 POP PUSH1 0x20 DUP2 ADD SWAP1 POP SWAP2 SWAP1 POP JUMP JUMPDEST PUSH1 0x0 DUP3 DUP3 MSTORE PUSH1 0x20 DUP3 ADD SWAP1 POP SWAP3 SWAP2 POP POP JUMP JUMPDEST PUSH1 0x0 PUSH2 0xD54 DUP3 PUSH2 0xE03 JUMP JUMPDEST SWAP2 POP PUSH2 0xD5F DUP4 PUSH2 0xE03 JUMP JUMPDEST SWAP3 POP DUP3 PUSH4 0xFFFFFFFF SUB DUP3 GT ISZERO PUSH2 0xD78 JUMPI PUSH2 0xD77 PUSH2 0xEE0 JUMP JUMPDEST JUMPDEST DUP3 DUP3 ADD SWAP1 POP SWAP3 SWAP2 POP POP JUMP JUMPDEST PUSH1 0x0 PUSH2 0xD8E DUP3 PUSH2 0xE13 JUMP JUMPDEST SWAP2 POP PUSH2 0xD99 DUP4 PUSH2 0xE13 JUMP JUMPDEST SWAP3 POP DUP2 PUSH1 0xFF DIV DUP4 GT DUP3 ISZERO ISZERO AND ISZERO PUSH2 0xDB3 JUMPI PUSH2 0xDB2 PUSH2 0xEE0 JUMP JUMPDEST JUMPDEST DUP3 DUP3 MUL SWAP1 POP SWAP3 SWAP2 POP POP JUMP JUMPDEST PUSH1 0x0 PUSH2 0xDC9 DUP3 PUSH2 0xDE3 JUMP JUMPDEST SWAP1 POP SWAP2 SWAP1 POP JUMP JUMPDEST PUSH1 0x0 DUP2 SWAP1 POP PUSH2 0xDDE DUP3 PUSH2 0x10B7 JUMP JUMPDEST SWAP2 SWAP1 POP JUMP JUMPDEST PUSH1 0x0 PUSH20 0xFFFFFFFFFFFFFFFFFFFFFFFFFFFFFFFFFFFFFFFF DUP3 AND SWAP1 POP SWAP2 SWAP1 POP JUMP JUMPDEST PUSH1 0x0 PUSH4 0xFFFFFFFF DUP3 AND SWAP1 POP SWAP2 SWAP1 POP JUMP JUMPDEST PUSH1 0x0 PUSH1 0xFF DUP3 AND SWAP1 POP SWAP2 SWAP1 POP JUMP JUMPDEST PUSH1 0x0 PUSH2 0xE2B DUP3 PUSH2 0xDD0 JUMP JUMPDEST SWAP1 POP SWAP2 SWAP1 POP JUMP JUMPDEST PUSH1 0x0 PUSH2 0xE3D DUP3 PUSH2 0xE03 JUMP JUMPDEST SWAP1 POP SWAP2 SWAP1 POP JUMP JUMPDEST DUP3 DUP2 DUP4 CALLDATACOPY PUSH1 0x0 DUP4 DUP4 ADD MSTORE POP POP POP JUMP JUMPDEST PUSH1 0x0 PUSH1 0x2 DUP3 DIV SWAP1 POP PUSH1 0x1 DUP3 AND DUP1 PUSH2 0xE6B JUMPI PUSH1 0x7F DUP3 AND SWAP2 POP JUMPDEST PUSH1 0x20 DUP3 LT DUP2 EQ ISZERO PUSH2 0xE7F JUMPI PUSH2 0xE7E PUSH2 0xF3E JUMP JUMPDEST JUMPDEST POP SWAP2 SWAP1 POP JUMP JUMPDEST PUSH2 0xE8E DUP3 PUSH2 0xFDF JUMP JUMPDEST DUP2 ADD DUP2 DUP2 LT PUSH8 0xFFFFFFFFFFFFFFFF DUP3 GT OR ISZERO PUSH2 0xEAD JUMPI PUSH2 0xEAC PUSH2 0xF9C JUMP JUMPDEST JUMPDEST DUP1 PUSH1 0x40 MSTORE POP POP POP JUMP JUMPDEST PUSH1 0x0 PUSH2 0xEC1 DUP3 PUSH2 0xE13 JUMP JUMPDEST SWAP2 POP PUSH1 0xFF DUP3 EQ ISZERO PUSH2 0xED5 JUMPI PUSH2 0xED4 PUSH2 0xEE0 JUMP JUMPDEST JUMPDEST PUSH1 0x1 DUP3 ADD SWAP1 POP SWAP2 SWAP1 POP JUMP JUMPDEST PUSH32 0x4E487B7100000000000000000000000000000000000000000000000000000000 PUSH1 0x0 MSTORE PUSH1 0x11 PUSH1 0x4 MSTORE PUSH1 0x24 PUSH1 0x0 REVERT JUMPDEST PUSH32 0x4E487B7100000000000000000000000000000000000000000000000000000000 PUSH1 0x0 MSTORE PUSH1 0x21 PUSH1 0x4 MSTORE PUSH1 0x24 PUSH1 0x0 REVERT JUMPDEST PUSH32 0x4E487B7100000000000000000000000000000000000000000000000000000000 PUSH1 0x0 MSTORE PUSH1 0x22 PUSH1 0x4 MSTORE PUSH1 0x24 PUSH1 0x0 REVERT JUMPDEST PUSH32 0x4E487B7100000000000000000000000000000000000000000000000000000000 PUSH1 0x0 MSTORE PUSH1 0x32 PUSH1 0x4 MSTORE PUSH1 0x24 PUSH1 0x0 REVERT JUMPDEST PUSH32 0x4E487B7100000000000000000000000000000000000000000000000000000000 PUSH1 0x0 MSTORE PUSH1 0x41 PUSH1 0x4 MSTORE PUSH1 0x24 PUSH1 0x0 REVERT JUMPDEST PUSH1 0x0 DUP1 REVERT JUMPDEST PUSH1 0x0 DUP1 REVERT JUMPDEST PUSH1 0x0 DUP1 REVERT JUMPDEST PUSH1 0x0 DUP1 REVERT JUMPDEST PUSH1 0x0 PUSH1 0x1F NOT PUSH1 0x1F DUP4 ADD AND SWAP1 POP SWAP2 SWAP1 POP JUMP JUMPDEST PUSH32 0x596F752063616E206E6F74206F7264657220666F6F6420756E74696C20746865 PUSH1 0x0 DUP3 ADD MSTORE PUSH32 0x20666F6F64206C69737420697320726567697374657265640000000000000000 PUSH1 0x20 DUP3 ADD MSTORE POP JUMP JUMPDEST PUSH32 0x4F6E6C792074686520617070206F776E65722063616E206C6F6720696E2E2E2E PUSH1 0x0 DUP3 ADD MSTORE PUSH32 0x2E00000000000000000000000000000000000000000000000000000000000000 PUSH1 0x20 DUP3 ADD MSTORE POP JUMP JUMPDEST PUSH32 0x546865206465736972656420666F6F6420776173206E6F7420666F756E640000 PUSH1 0x0 DUP3 ADD MSTORE POP JUMP JUMPDEST PUSH1 0x2 DUP2 LT PUSH2 0x10C8 JUMPI PUSH2 0x10C7 PUSH2 0xF0F JUMP JUMPDEST JUMPDEST POP JUMP JUMPDEST PUSH2 0x10D4 DUP2 PUSH2 0xE03 JUMP JUMPDEST DUP2 EQ PUSH2 0x10DF JUMPI PUSH1 0x0 DUP1 REVERT JUMPDEST POP JUMP JUMPDEST PUSH2 0x10EB DUP2 PUSH2 0xE13 JUMP JUMPDEST DUP2 EQ PUSH2 0x10F6 JUMPI PUSH1 0x0 DUP1 REVERT JUMPDEST POP JUMP INVALID LOG2 PUSH5 0x6970667358 0x22 SLT KECCAK256 SWAP8 DUP8 0xDD 0xAD DUP10 0x1E 0x2C SMOD 0xD9 DUP10 PUSH27 0x66B0BBA8712682A221E17A8AB0831E48732C6B913464736F6C6343 STOP ADDMOD SMOD STOP CALLER "
		},
		"gasEstimates": {
			"creation": {
				"codeDepositCost": "879800",
				"executionCost": "73747",
				"totalCost": "953547"
			},
			"external": {
				"RegisterMenu(uint32,uint8,string)": "infinite",
				"contrataddress()": "2537",
				"fazes()": "2560",
				"getorder(uint32,uint8,string,string)": "infinite",
				"owneraddress()": "2577",
				"payment()": "infinite",
				"tp()": "2565"
			}
		},
		"methodIdentifiers": {
			"RegisterMenu(uint32,uint8,string)": "19d9e015",
			"contrataddress()": "1ccf4e39",
			"fazes()": "306a79bf",
			"getorder(uint32,uint8,string,string)": "2e06cd0d",
			"owneraddress()": "aaa48425",
			"payment()": "42f6487a",
			"tp()": "944de246"
		}
	},
	"abi": [
		{
			"inputs": [],
			"stateMutability": "nonpayable",
			"type": "constructor"
		},
		{
			"anonymous": false,
			"inputs": [
				{
					"indexed": false,
					"internalType": "address",
					"name": "from",
					"type": "address"
				},
				{
					"indexed": false,
					"internalType": "address",
					"name": "to",
					"type": "address"
				},
				{
					"indexed": false,
					"internalType": "uint256",
					"name": "amount",
					"type": "uint256"
				}
			],
			"name": "sent",
			"type": "event"
		},
		{
			"inputs": [
				{
					"internalType": "uint32",
					"name": "id",
					"type": "uint32"
				},
				{
					"internalType": "uint8",
					"name": "price",
					"type": "uint8"
				},
				{
					"internalType": "string",
					"name": "name",
					"type": "string"
				}
			],
			"name": "RegisterMenu",
			"outputs": [],
			"stateMutability": "nonpayable",
			"type": "function"
		},
		{
			"inputs": [],
			"name": "contrataddress",
			"outputs": [
				{
					"internalType": "address",
					"name": "",
					"type": "address"
				}
			],
			"stateMutability": "view",
			"type": "function"
		},
		{
			"inputs": [],
			"name": "fazes",
			"outputs": [
				{
					"internalType": "enum Restaurant.FAZ",
					"name": "",
					"type": "uint8"
				}
			],
			"stateMutability": "view",
			"type": "function"
		},
		{
			"inputs": [
				{
					"internalType": "uint32",
					"name": "id",
					"type": "uint32"
				},
				{
					"internalType": "uint8",
					"name": "num",
					"type": "uint8"
				},
				{
					"internalType": "string",
					"name": "name",
					"type": "string"
				},
				{
					"internalType": "string",
					"name": "delivery",
					"type": "string"
				}
			],
			"name": "getorder",
			"outputs": [],
			"stateMutability": "payable",
			"type": "function"
		},
		{
			"inputs": [],
			"name": "owneraddress",
			"outputs": [
				{
					"internalType": "address",
					"name": "",
					"type": "address"
				}
			],
			"stateMutability": "view",
			"type": "function"
		},
		{
			"inputs": [],
			"name": "payment",
			"outputs": [],
			"stateMutability": "payable",
			"type": "function"
		},
		{
			"inputs": [],
			"name": "tp",
			"outputs": [
				{
					"internalType": "uint32",
					"name": "",
					"type": "uint32"
				}
			],
			"stateMutability": "view",
			"type": "function"
		}
	]
}